:100000009F043000990430009904300099043000B6
:1000100099043000990430009904300099043000AC
:10002000990430009904300099043000990430009C
:10003000990430009904300099043000990430008C
:10004000990430009904300099043000990430007C
:10005000990430009904300099043000990430006C
:10006000990430009904300099043000990430005C
:10007000990430009904300099043000990430004C
:10008000990430009904300099043000990430003C
:10127C00FCFFF065B0F434009B043400ABF4340094
:10128C00C0033400980334003104340007043400E4
:08129C00A5043000A804300095
:100F00000800D095240000640000F0B125000064C2
:100F10000100F0B1260000640200F0B12700006477
:100F20000300F0B1120000640400F0B1110000648D
:100F30000500F0B1320000640600F0B1FF0010645B
:100F40008500016402023400FF001064880001641F
:100F5000020234003000106489000164020234008F
:100F6000100010648A0001640202340000008064F2
:100F70003240E45BE703280140C00F448000004496
:100F8000000000A80504206C040010641602340060
:100F9000104084440C408444DC0330004000006472
:100FA00082033400000080644240E45BF9032801BE
:100FB0007242E45BF003200004001064F10330008F
:100FC0000000106400C00F4480000044000000A82E
:100FD0000604206C16023400104084440C40844403
:100FE000EA033000E3000064C00201BCC00201C497
:100FF000747F0044C00201BC27000064D00201BC21
:10100000D40201C405420044D40201BC0000D099BE
:0C101000000000A0251834001528700016
:100808000602306C0400206424003400000000A0BC
:0408180015021000B5
:100090000400D0950DC0514409C141440D40624453
:1000A0008C0041644200E05D2D00200003003064BC
:1000B0002E0030000800306400008064000070648E
:1000C00003004164448042440240E25D390028005C
:1000D00015408444144043440D40424445807344D9
:1000E000390030000C004264448042440240E25D2A
:1000F0004200280025408444244043440D404244AB
:1001000045807344420030009E00406C448042446D
:100110000240E25D4E002800C5408444C440434490
:100120000D404244458073440080F3B50040744460
:1001300000808FAC510030000000F4B500C0834453
:1001400000807FAC9F00406C448042440240E25DEE
:100150005A00280005C37344044343440D404244FD
:10016000450084445A003000840041644200404409
:10017000384052441C004164500042440DD0B04409
:100180000000A0640DD09144004032449200E55D2F
:100190007800600014C045440240E25D750028000C
:1001A000A0805144008042A8F4434244000052B071
:1001B000A0806144F6FF5344000043A85400424429
:1001C000000062B0A0805144008042A885004244F3
:1001D000000052B019C0B5441040A544630030007F
:1001E00000008064000070640DD030440000106492
:1001F0000080F0B50D50114400802FAC0242E15D4B
:100200008E00600014C041440240E25D8B00280073
:100210000C00406428004244450084440DD0404412
:1002200028004244458073448B00300019C031449B
:10023000404021447F00300084004164420040443B
:10024000284052446000416450006244004003442E
:10025000F67F5444000043AC54004244000062B4B2
:10026000000040AC75004244000002B4FF0000648E
:100270000000D099000000A0F0000C00000F30003A
:000280007E
:10085800004061440240E0591C0268002244E0590B
:100868001C02A8011E023000FE0000648202300053
:100878001C00316400803144008031A8F4C3314445
:100888000DD071440D402344094133440DC05144F7
:100898000D404344030031643400324402C0E15D3A
:1008A80032022800E4CF43440D50424414C032447D
:1008B8000DC03144350032440DD06144330230005C
:1008C8000DD063440C0032643400314402C0E15D51
:1008D8003E022800D44F43440D50424424C03244C1
:1008E8000DC03144350032440DD061443E02300021
:1008F8008302306C3400314402C0E15D49022800B3
:10090800344F43440D504244C4C032440DC03144B6
:10091800350032440DD06144490230008402306C05
:100928003400314402C0E15D54022800F44C4344D1
:100938000D50424404C332440DC0314435003244A2
:100948000DD06144540230008502306C34003144CB
:1009580002C0E15D60022800F44343440D50424464
:10096800C0003064548031440DC0314435003244F5
:100978000DD02144610230000D5023441C00316425
:1009880000803144000031B002C1E05981022800E2
:100998000D50304419C071440DD073446000316467
:1009A80070803144008041A8144030440DD0314457
:1009B80028C031440DC031440DD061440C0030646E
:1009C800688031440CC03144F6FF31440CC03144D6
:1009D800340052440DD040440D5033443800424452
:1009E8000D4042440DD0324445805144600031648A
:1009F800708041440DD03244008041B0FF00006453
:100A0800000000A0F0000C00000F300000E0C00063
:000A1800DE
:100E0800080011C405801044080011BC080011C472
:100E180000402064248010442280E05D00002064AB
:100E28008C032000010020640C0011C4A342E1459A
:0C0E3800EB8110440C0011BC000000A075
:100E600000000064850001B8880001C40B42004402
:100E7000880001BC880001C41B420044880001BCFA
:100E8000880001C42B420044880001BC880001C4D2
:100E90003B420044880001BC880001C4DB4200449E
:100EA000880001BC880001C4CB620044880001BCFA
:100EB000880001C44B430044880001BCB503C06DE9
:100EC000004000441240CE450240EE5DB1032000D8
:100ED000B6033000D3DC3200004000440040004440
:100EE00086023400000000644F3800B8503800B863
:100EF000010000644C0000B84E2000B8000000A0C3
:000F0000F1
:100A18000000706402C4E359810360000000806430
:100A28000244E4597E036000F4C103440D5040447D
:100A3800F44124440D5021440D5031440DD0034459
:100A4800594010440DD010440D500444494000440E
:100A58000D500044008000440D501044744001447F
:100A68000D509044F44001448240E059A0026800CF
:100A78000D500244A3023000004202440C402044BE
:100A88000C4001440D50204402C1E159B0026800F5
:100A98000300B06430C000440C400044434000F4FC
:100AA8000C400044684000440C40004400000144ED
:100AB8000D50A044B60230000000B0640DD00044D0
:100AC800684000440C400044000001440D50A0441C
:100AD8000DD0154407000064180000440C40004481
:100AE800F67F00440D50C0444F3800C00C500044FD
:100AF8000280E35BCF022001503800C00C50004454
:100B08000200E45BCF0220014F3800C00C500044C3
:100B1800004400440280E35BCF022801503800C043
:100B28000C500044004400440200E45BCF0228015A
:100B3800D20230000000106400000064EB023000B4
:100B4800503800C00C500044020004440C400044DB
:100B5800684010440CC010444F3800C00C5000448A
:100B6800028003440C400044008000440C400044D0
:100B7800184020440C4021444E001064208000445A
:100B8800000000A80D503044104001440C400044BF
:100B980000800044000000A80D5010440DD000440F
:100BA8000DD011440D5020440D40014488400044AC
:100BB8000D400044150020440D40214400C000644D
:100BC800040001440D400044E94000440D40004445
:100BD80001001064088000440C4000441240604446
:100BE8000D50F34400060064040001440D40004425
:100BF800994000440D400044088000440C400044E3
:100C0800124050440DD0D244844101440D40004468
:100C1800394000440D400044088000440C40004422
:100C2800124040440D50E2440DD004448840104422
:100C38004F20006410000044A0003044008001A848
:100C4800C40020440D5021440D5003441440104466
:100C58000DD010440DD00244144000440D500044FF
:100C6800184000440D400044058010440DC0104455
:100C78000D500244144000440D50004428400044E4
:100C88000D400044058000440D4000440D401044D0
:100C98000DD00544088000440D400044050001447F
:100CA8000D500044000030B00DD007441940604496
:100CB8000D5063440D50F3440DD006441940504480
:100CC8000DD052440DD0D2440D5007441940404431
:100CD8000D5042440D50E2440DD004448840104465
:100CE8004F28006410000044A0003044008001A890
:100CF800C40020440D502144144013440DD0104426
:100D080014C002440D500044184000440D400044F3
:100D1800058010440DC01044144002440D50004496
:100D2800284000440D400044058000440D40004424
:100D38000D4010440DD00544088000440D40004487
:100D4800050001440D500044000030B00DD00744A8
:100D5800194060440D5063440DD006441940504476
:100D68000DD052440D500744194040440D504244A0
:100D78000DD00444884010444F30006410000044F3
:100D8800A0003044008001A8C40020440D50214434
:100D9800144013440DD0104414C002440D500044B4
:100DA800184000440D400044058010440DC0104414
:100DB800144002440D500044284000440D400044B3
:100DC800058000440D4000440D4010440DD00544FA
:100DD800088000440D400044050001440D500044C3
:100DE800000030B0104084440D5084448A02300022
:100DF80010C073440DD0734487023000000000A077
:000E0800EA
:1010C400840001C41B630044840001BC000040642C
:1010D4003240E259920460000000306482C0E15959
:1010E4008F0460000400006430002044000001A864
:1010F40014401044880001C403C2E045EB010044DD
:10110400880001BC000001A8244000440D500044A4
:1011140019401044880001C413C2E045EB010044A7
:10112400880001BC000001A8444000440D50004464
:1011340029401044880001C423C2E045EB01004467
:10114400880001BC000001A8844000440D50004404
:1011540039401044880001C433C2E045EB01004427
:10116400880001BC000000640D5022440D4040443E
:101174000250E25B78046000880001C4CB42004462
:10118400880001BC0D500144B84010444F20006455
:10119400100010440DD001448840004400800044F5
:1011A40040000044000000A8850001B8880001C484
:1011B400DB620044880001BC880001C4DB420044B7
:1011C400880001BC880001C4CB620044880001BCD3
:1011D400104042440D4042445D0430004C0000C0C5
:1011E4000240E0597E042800880001C44B430044B7
:1011F400880001BC000000640D5041440D402044AF
:101204000DD011444E2000C00200E15B890460004F
:101214009C013400104021440D40214482043000DC
:10122400880001C44B630044880001BC10C0004422
:101234000D50304438043000104042440D504244B4
:1012440035043000880001C44B630044880001BCAD
:10125400840001C41B430044840001BC000000A0BE
:001264008A
:10067000A201C06D004000441240CE450240EE5D34
:100680009E012000A30130001F0000000040004434
:0806900000400044000000A03E
:10101C00DC0201C40240E05D0D04A0014D00B0658E
:10102C00C802C1651C40BEF11D043000CE01340065
:10103C0030043000C101340030043000A60134000B
:10104C00300430008201340030043000DB01340005
:10105C00300430000702340030043000000000641B
:10106C004D0000B8300430004D0000C02240E05963
:10107C000E0428004D0000C01240E0591004280056
:10108C004D0000C03240E059120428004D0000C051
:10109C004240E059140428004D0000C05240E05971
:1010AC00160428004D0000C06240E05918042800C6
:0810BC001A043000000000A03E
:10073800DC0201C41240E05DD2016000CE0130004D
:100748000C00B065C802C1651C40BEF10C0000C0B9
:100758004E2000B8000000640C0000B84D0000B83E
:04076800000000A0ED
:10070400DC0201C41240E05DC5016000C10130009B
:100714000C00B065C802C1651C40BEF10C0000C0ED
:100724004C0000B8000000640C0000B84D0000B894
:04073400000000A021
:10069800DC0201C41240E05DAA016000A60130003E
:1006A8000C00B065C802C1651C40BEF10000306492
:1006B800002000640280E15BBD0160004E00006420
:1006C800300020440C0000C0D8401044A41200643C
:1006D8001000004430000044000000C8000020B0B2
:1006E80010C031440DC03144AE01300086023400E0
:0C06F800000000644D0000B8000000A0ED
:1006080000006064000400640200E35B980160007D
:10061800DC0201C48240E05D8A016000860130008E
:100628000C00B065C802C1658C40BEF10D400344A2
:10063800384010440DC010444E00006410000044BF
:10064800080020640C001064A000340010406344CB
:100658000D406344830130008602340000000064CA
:080668004D0000B8000000A0E5
:1002800000C030440040104400C0014400C050444D
:100290000C404144124031440CC021440240E25B16
:1002A000AE002800000030A8008051B010C05244B9
:1002B00010400044A400300000C00044000000A032
:0002C0003E
:10076C00DC0201C44240E05DDF016000DB013000CF
:10077C000C00B065C802C1654C40BEF10C0000C055
:10078C00684010440CC010440D0000C000800044B0
:10079C000C400044184010440CC010444E0000643F
:1007AC00100010440E0000C0000010B00C0000C07F
:1007BC00684010440CC010440D0000C00080004480
:1007CC000C400044184000440C40004410401044BD
:1007DC000CC010444E000064100010440F0000C008
:1007EC00000010B00C0010C00D0000C0B0003400B0
:0C07FC00000000644D0000B8000000A0E8
:1002C0000D5050440DD06044F4C122440D5081447F
:1002D000F44143440D5042440D5072440DD0224429
:1002E000594031440DD031440D50234449402144FC
:1002F0000D502144208021440D501144744022446B
:100300000D500144F44022448240E159C600680087
:100310000D502444C9003000004224440C403144B4
:100320000CC021440D50314402C1E359D60068008D
:100330000300A06430C020440C402144434021F419
:100340000C402144684021440C4021442080214439
:100350000D501144DC0030000000A0640DD020449A
:10036000684021440C402144208021440D50114418
:100370000D50354407002064380021440C402144CE
:10038000F67F91440DD0B4440D502344684021447D
:100390000C402144500021440C4021441840514459
:1003A0000CC052444E00406450002244000031A86A
:1003B00010C022440C40214420002244000021A807
:1003C0000D5041440D402244884021440D402144B9
:1003D000350041440D40424400C0206424002244C2
:1003E0000D402144E94021440D4021440100306486
:1003F000288021440C402144124081440D50E444A3
:1004000000062064240022440D40214499402144E8
:100410000D402144288021440C4021441240714465
:100420000DD0C344844122440D402144394021442D
:100430000D402144288021440C4021441240614455
:100440000D50D3440D502044884031444F20206447
:100450003000214410005144008032A80DD02444C3
:10046000248041440D5042440D50244414403144F2
:100470000DD031440DD02344144021440D5021446B
:10048000184021440D402144258031440DC03144A1
:100490000D502344144021440D5021442840214450
:1004A0000D402144258021440D4021440D4031441C
:1004B0000D502544288021440D402144250022442C
:1004C0000D502144000051B00D5027441940814483
:1004D0000D5084440D5094440D50264419407144ED
:1004E0000DD073440DD0C3440DD02644194061444F
:1004F0000D5063440D50D3440D5020448840314486
:100500004F2820643000214410005144008022A86C
:10051000B40041440D504244144034440DD03144A1
:1005200014C023440D502144184021440D4021445F
:10053000258031440DC03144144023440D502144E2
:10054000284021440D402144258021440D40214470
:100550000D4031440D502544288021440D40214454
:10056000250022440D502144000051B00DD02444F8
:10057000194081440D5084440D5026441940714463
:100580000DD073440DD02644194061440D5063448E
:100590000D502044884031444F30206430002144C5
:1005A00010005144008022A8B40041440D50424440
:1005B000144034440DD0314414C023440D50214420
:1005C000184021440D402144258031440DC0314460
:1005D000144023440D502144284021440D4021441F
:1005E000258021440D4021440D4031440D502544C7
:1005F000288021440D402144250022440D502144EF
:08060000000051B0000000A051
:10081C00DC0201C42240E05D0B02600007023000E4
:10082C000C00B065C802C1652C40BEF10C0000C0C4
:10083C004F3800B80D0000C0503800B886023400A4
:0C084C00000000644D0000B8000000A097
:100E440000009EC90080BCB11040CE4510C0BD4515
:0C0E5400A281ED5D91032000000000A0D1
:10126C009E04006C543800BC000000A0A086010055
:00127C0072
:0812640099043000000000A015
:020000040003F7
:10D2AC000400B0650C00A065A4D2C36591033400E2
:04D2BC00000000A0CE
:10D2C000040000640000106454382064278000F0DB
:04D2D000000000A0BA
:020000040000FA
:1012A400FFFFFFFFFFFFFFFFFFFFFFFFFFFFFFFF4A
:1012B400FFFFFFFFFFFFFFFFFFFFFFFFFFFFFFFF3A
:1012C400FFFFFFFFFFFFFFFFFFFFFFFFFFFFFFFF2A
:1012D400FFFFFFFFFFFFFFFFFFFFFFFFFFFFFFFF1A
:101AA400FEFFFFFFBFFFFFFFFEFFFEFFDFFFFFFFA5
:101AB400DFFFFEFFFFFFFFFFFFFFFFFFFFFFFFFF53
:101AC400FEFFFDFFFFFFDFF7FFFFFFFFFEF7FFFF56
:101AD400FFFFDFFFFFFFFFFFDEFFFFFFFFF7FFFF5B
:101AE400FFFFFEFFFFFFFFFFFFFFDFFFFFFFDFFF43
:101AF400FFFFFFFFDFFFFFFFFFFFFFF7FFFFDFFF3A
:101B0400FFFFFFFFFFFFFFFFFFFFFFFFFFFFFFFFE1
:101B1400FEFFFFFFFEFFFDFFFFFFFFFFFFFFFEFFD6
:101B2400FFEFFEFFFFFFFEFFFDFFFEFFFFFFFFFFD6
:101B3400FFFFFEFFFEFFFFFFFFFFFFFFFFFFFFFFB3
:101B4400FFFFDFFFFFFFFFFFFFFFFFFFFFFFFFFFC1
:101B5400FEFFFEFFFFFFFFFFFEFFFEFFFFFFFFFF95
:101B6400FFFFFFFFFFFFFFFFFFFFFFFFFEFFFFFF82
:101B7400FFFFFFFFFFFFFFFFFFFFFEFFFFFFFFFF72
:101B8400FEFFFEFFFEFFFEFFFEFFFEFFFEFFFEFF69
:101B9400FFFFFFFFFFFFFEFFFFFFFEFFFEFFFFFF54
:101BA400FFFFD5EE2FEE2EEE4CEE2DEE2EF62CEEA4
:101BB40035F7FDFFDEFFFFFFFFFFFFFFFEFFFFFF27
:101BC400FFFFDFFFFFFF59EF6BA430B54DA50FAD4D
:101BD400EEAC2DAD95A55BA6FFFFDDFFDFFFFFFF9C
:101BE400FFFFDFFFDFFFFFFF3DD719A66F8D6E9D5F
:101BF4006E9D6E956E956D9DABADEED6CDD6CED663
:101C0400CDD6CDD6CDD6CED6CED6CDD6CDD6EED695
:101C140012DF74EFFAFFFDFFFFFFFFFFFEFFDFFFA0
:101C2400FEFF71EE66EDA5F584F565FD85F5A3F57A
:101C340066DD77FFFFFFFFFFDFFFFFFFFFFFFFFF13
:101C4400DDFFFFFFFEF775F744ACC58B05840694F2
:101C54000794C68BD18C58751DC7FFFFDFFFFFFFAC
:101C6400FFFFDFFFFFFFFFFF3685B78588646774DA
:101C74008674876CA66C426C67BE65CE84C685BECE
:101C840065C665C665C665C665C666C665C665C6F7
:101C940045BE45BE07BED0D6FDFFFFFFFFFFFFFFD9
:101CA400FEFFAFEEA4EDA3F5A4FD85FD85FDA4FD27
:101CB40083FD68DDD9FFFFFFFFFFFEFFFFFFFFFF8E
:101CC400DFFFFFFFFFFF35F7A7E5C39B0694069CE4
:101CD4000694E893F28CBA7D387DFFFFDEFFFFFFA8
:101CE400FFFFDFFFFFFF5BB6597DD885A864A774AB
:101CF400C574E574A36CC59DA6CE84CE84CE85C67A
:101D040084CE84CE84CE84CE84CE64CE84CE84CE5F
:101D140085CE84CE84C645BE6BC6F9FFFEFFFFFFA9
:101D2400FFFFAEEEA3F582FDA3FD84FD84FDA3FDBC
:101D3400A4FD83FD89EDFBFFFEF7FEFFFFFFFFFF20
:101D4400DFFFFFFFFFFF16F7A6ED06D5C593E69B61
:101D54000694E993F28CBA7D5A7DFAA5FFFFFFFF42
:101D6400FFFFFFF7DFE7F87C7B7DD885C864A774A5
:101D7400C574C374C27CC7C684C684CE84C685C6F3
:101D840085CE85CE65CE65CE65CE85CE64CE64C661
:101D940064C665C666CE85CE45BEEFDEFDFFFFFF99
:101DA400FFFF90EE85ED84F5A4F5A4FDA4FDC3F535
:101DB400A4F5A3FD84F5CBE5FBFFFFFFFFFFFFFFC9
:101DC400FFFFFEFFFEFF15F763ED07FE22AC059C47
:101DD4002694E88BF18CBA857B7D18757ED7FFFF3E
:101DE400FFF7FFFF988D5B7D9B7DB885A964A67482
:101DF400C774436C47BE86C685C665C686C666C6B6
:101E040084C684C684C684C684C684C683C6A4CE57
:101E140083CE84CE66C665CE85C629BEFBFFFFFF92
:101E2400FEFF8EF684F584FDA4FDA4FDA4FDA4FDAF
:101E3400A4FDA5F5C3F585F50FF6FEFFFFF7FFFF3B
:101E4400FFFFFFFFFEFF35F764ED84FDE7E5A38B9D
:101E54002694078CF18C9A8D9B7D9B7D5985FFFF81
:101E6400FFFFFDC6197D7C7D9A7DB88D8A6CC57493
:101E7400A574448DC6CE84CE65C688C669C669CEAF
:101E840069C66AC66AC669C669C669C648C627BE3F
:101E940066C684C684CE84CEA3CE46BE97F7FFFF23
:101EA400FEFF6FEE84F583FDA4FD83FDA3FD84FD99
:101EB40084FDC4F5A3F564FD45EDD0EEFEFFFFFF00
:101EC400FFFFFFFFFEFF55EF85EDA3F505F6A6C462
:101ED400C793258CEF8C9A857C7D9C7D3A759CB646
:101EE400FFEF187D7B7D7C859A7DD885A864C574B9
:101EF4008374C7C664CE64C688C6FCFFFDFFFEFFBC
:101F0400FCFFFEFFFEFFFCFFFDFFFEFFFBFF30DFDB
:101F140027C683C684C683C684C645BE54E7FEFF6F
:101F2400FEFF6FEEA4F583FDA4FD83FDA3FD84FDF8
:101F340064FDA3F5C5F5A4F5A3FD65E513F7FFFF5F
:101F4400FFFFFEFFDEFF36F764F5A4F5A4F5E7FD19
:101F5400E39B0794F184BA857B7D9B7DBA7D59858B
:101F6400FA9D7A857B7D7B7D9B7DD985A96464748C
:101F7400E6A5A5CE65CE65CE6AC6FFFFFFFFFFFFCF
:101F8400FFFFFFFFFFFFFFFFFFFFFFFFFDFFFCFF62
:101F940028C684C6A4CE84CE84CE24BE53E7FFFFD5
:101FA400FEFF6FEE84F5A3FDA4FD84FDA3FD84FD77
:101FB40065F5A3FDA4F5C4EDA3FD83FD46E557FF38
:101FC400FEFFFEF7FFFF16F744F5A4FDA4FDA4FDF4
:101FD40065DD868BD28C9A859B75BA759A757B85DF
:101FE4007A857B7DBA75BB7D7A7DB9858964C48425
:101FF400C7C684C665CE65CE6AC6FFFFFFFFFFFF76
:10200400FFFFFFFFFFFFFFFFFEFFFDFFFEFFFEFFE1
:102014004ACE83C684C665CE85CE44BE53E7FFFF51
:10202400FEFF6FEE84F5A3FDA4FD84FDA4FD84F5FD
:102034008BF685ED84FDA3FDA5FD83FDC3FD68E559
:10204400B8FFFEF7FFFF34F744F584F5C3FD84FDC4
:1020540005FE25ACD1947A859B7DBA75BB757C85CC
:102064007B7D9B7DBB7D7A7D7B7DD98D456487BEE1
:1020740084C683C665CE65C66AC6FEFFFFFFFFFF42
:10208400FFFFFFFFFFFFFFFFFFFFFFFFFEFFFEFF5E
:1020940049C6A3C684C685CE85CE44C653E7FFFF92
:1020A400FEFF6FEEA4EDA3FDA4FDA4FDA4FD64ED6D
:1020B400F5FF4FEE66F583FDA4FDA3F5A3F584FDBE
:1020C40069EDF9FFFDF755F745F584FDC3FD84FD82
:1020D400A4FDC7E5AD8C9B859B7DBA7D9B7D7C85EE
:1020E4009B7D9B7D9A7D7B7D7B7D9785678DC4CE13
:1020F40084C684C684C685C689C6FBFFFFFFFFFF6E
:10210400FFFFFFFFFFFFFEFFFFFFDFFFFEFFFAFF02
:1021140007BE83C684C685CE85CE64C632E7FEFF7D
:10212400FEFF8FEE84F583FDA4FDA4FDA4FD64ED04
:1021340097F7FBFF0DE6A6EDA3FDA2F5A5F584FD3B
:1021440064FDCADDFBFF35F745ED84F5A4FD83FD91
:1021540084FD27EE6FA57A857B859B7D9C7D7B7DA9
:102164009A7D9B7D9B7D7B857B859685ABB683C65F
:1021740084C684C6A4C666C689C6FAFFFEFFFEFFEF
:10218400FBFFFCFFFCFFFBFFFCFFFEFFFAFFAECEF4
:1021940046C683C684C684CE64CE25BE55EFFEFFF4
:1021A400FEFF8FEE84F583FD84FDA4FDA4FD65EDA3
:1021B40099FFFDFFFCFFCCDDA4EDC4FD85FDA4F576
:1021C400A3FD84E50DEE72FF64F584F5A3FDA3FD84
:1021D400C5F588D5AD849A857B857B7D9B759B7D74
:1021E4007A7D9B7D9B7D7B859A7DB785C674C8CEA1
:1021F40066C684C6A3C685C6A4C664C646C666BEED
:1022040047C648BE47BE46BE47BE28BE26C684C68D
:1022140085CE83C685C684C684CE07BE98F7FEFFE6
:10222400FEFF8FEE84F583FDA4FDA4FDA4FD65ED02
:1022340078FFFDFFFFFFF9FFA8DD65F584FDA2FD32
:10224400A4FD84F585F507F683FDA4FDA2FD84FDB8
:1022540027FEC59BF18C99857B859B7DBB7D9B7DF2
:102264009B7D9C7D7B7D7A7D9A7DD8854764E9B58D
:1022740085CE84C6A4C667C665CE65CE65CE65CE5A
:1022840065CE65CE65CE65C665CE85CE85CE65CE7A
:1022940084CE84C665C684C665CE09BEFCFFFFFF36
:1022A400FFFF8FEEA4F583FDA4FDA3FDA3F565E573
:1022B40098F7DFFFFFFFFEFFB8FF66DDA3FD84FD97
:1022C40084FDA4F5A3FD83FD84FD84FD84FDE5F573
:1022D400E5CCC68BD18CB98D9B7D9C757B7D9B7D1C
:1022E4007A757A7D9A857B7D9B7DB88D486CA56CCB
:1022F400E8C664C684CE64CE84C6A3C684C665CE4E
:1023040084CE84C684C684C684CE84C684C684CE61
:1023140064C666CE85CE83C645BED1DEFEFFFFFF12
:10232400FFFF8FEE84F583FDA4FDA3FDA3FD66E509
:1023340097FFFFFFFEFFFFFFDEFF55FF66DDA2F5FF
:1023440084FD84FDA2FDC2FDA4F5A4FD84F5C7F5BA
:10235400A29BE693F18C9A859B7D9C7D9B7D388521
:10236400BDB6597DBB7D7B7D9B7DB8858974A46C8E
:102374008495C6CE64C685CE86C6A4C684C665CEFC
:1023840065C665C665C665C685CE65C665C665CEC1
:10239400A4CE84C683C665C62BBEFBFFDEFFFEFF4C
:1023A400FFFF8FEEA4F584FDA4FDA3FDA3FD46ED80
:1023B40097FFFFFFFFF7DFFFDFFFFEFF13F764E583
:1023C400A3FD83FDA3FDC3F5A4F5A3FD07FE24B47B
:1023D400059CE693F18CBA7D9B7D9B7D19753EDF50
:1023E400FFFF5885BB7D9B859A7DB985696CC57453
:1023F400636C66BEA4CE65CE65C664BE64C666C69E
:1024040045BE45C645C645C645C645C645C645C678
:1024140046BE66C626BE8DCEFAFFDFFFFFFFFEFF77
:10242400FFFF8FEEA4F584FD84FDA3FDA3FD46ED1F
:1024340098FFFFFFFFF7DFFFDEFFFEF7FEFF50EE22
:1024440083ED83FDA5FDC5F5A3FDA3FD45DDC49383
:102454002694E793D18CBA7D9B7D7A7DDA95FFFF34
:10246400FFFF9FDF186D7B7D9B7DB885896CC674EB
:10247400C674E27CE6CE65C667CE50E730DF11DF76
:1024840031E731E731E731E731E731E731E731E788
:1024940032E732E7D7F7FDFFDEFFFFFFFFFFFFFF65
:1024A400FEFF8FEE84ED83FDA4FDA3FDA3FD45EDAA
:1024B40078FFFEFFFFF7FFFFFEFFFEFFFFFFFDFFBC
:1024C4002CE685F564FD84FDA2FDE6FDE39B059CF9
:1024D4000694088CF18CBA859B7D177DDFEFFFFF96
:1024E400DEFFFFFF3AA65B7D9B7DB8858974C66CD1
:1024F400C6748374E5A5A6C66ACEFDFFFFFFFFFF81
:10250400FEFFFEFFFEFFFEFFFEFFFEFFFEFFFEFFDF
:10251400FDFFFEFFFFFFDFFFFFFFFEFFFEFFFFFFEC
:10252400FEFFAFEE84F5A4FDA4FDA3FDA3FD65EDC0
:1025340078FFFEFFFEFFFFFFFFFFFFFFFFFFFFFF30
:10254400FCFFABDD65FD83FDE4F5E5BCC693E69BCE
:102554000694E88BD18C998559759BBEFFFFFFFFCC
:10256400FFFFDEFFFFF7187D9A7DB88D6874C76C96
:10257400C674C6746274C7C689C6FFFFDEFFFFFF58
:10258400FFFFFFFFFFFFFFFFFFFFFFFFFFFFFFFF57
:10259400FFFFFFFFFFFFFFFFFFFFFEFFFEFFFFFF49
:1025A400FFFF8FEE84ED84FD85F5A4FDA4F546E5DB
:1025B40097F7FEFFFFFFFFFFFFFFFEFFFEFFFFFF9A
:1025C400FFFFFBFF69DD85F5E7E5C4832894E69BFF
:1025D4000694E893F28C9A7D788DFFFFDEFFFFF777
:1025E400FFFFFFFFFFFFFDD6387DB885896CC66C01
:1025F400C574C7748574448DEBCEFDFFFCFFFDFFED
:10260400FFFFFFFFFFFFFFFFFFFFFFFFFFFFFFFFD6
:10261400FFFFFEFFFEFFFFFFFFFFFFFFFFFFFFFFC8
:10262400FFFF6FEE65E564F565ED64F584ED26DD89
:1026340096F7FFFFDFFFFFFFFFFFFEF7FEFFDFFF61
:10264400DEFFFFF7D8FFA9E5A39BA583A483A58B91
:1026540085836583917C186DBFDFFEFFFFFFFFFF5D
:10266400FFFFDFF7DEFFFFFF99957775095C446490
:10267400636C4564466CE463CBADFFFFFEFFFFFF74
:10268400FFFFFFFFFFFFFFFFFFFFFFFFFFFFFFFF56
:10269400FFFFFFFFFFFFFFFFFFFFFFFFFFFFFFFF46
:1026A400FDFF79F7F5EE34F734F734F734F715EF27
:1026B400DDF7FFFFFEFFFFFFFFFFFFFFFFFFFFFF51
:1026C400FFFFFFFFFEFF7AF776D6B6D6B6D6B6D6AC
:1026D40097D698D6DADE3DDFFFFFFFFFFFFFFFFF4F
:1026E400FFFFFFFFFFFFFFFFBEF7FBD6B8CED7CE3D
:1026F400B6D6B6D6B6D6B7D6B7D6FFFFDFFFFFFF3E
:10270400FFFFFFFFFFFFFFFFFFFFFFFFFFFFFFFFD5
:10271400FFFFFFFFFFFFFFFFFFFFFFFFFFFFFFFFC5
:10272400DFFFFFFFFFFFFEFFFDFFFEFFFEFFFFFFDA
:10273400FFFFFEFFFFFFFFFFFFFFFFFFFFFFFFFFA6
:10274400FFFFFFFFDEFFFEFFFEFFFEFFFEFFFEFFBB
:10275400FEFFFFFFFFFFFFFFFFFFFFFFFFFFFFFF86
:10276400FFFFFFFFFFFFFFFFFFFFFFFFFEFFFEFF77
:10277400FEFFFEFFFEFFFEFFFEFFFEFFFFFFFFFF6B
:10278400FFFFFFFFFFFFFFFFFFFFFFFFFFFFFFFF55
:10279400FFFFFFFFFFFFFFFFFFFFFFFFFFFFFFFF45
:1027A400FEF7FFF7FEF7FEFFFEFFFFFFFFFFFFF759
:1027B400FEFFFFFFFFFFFFFFFFFFFFFFFFFFFFFF26
:1027C400FFFFFEFFDEFFFEFFFFFFFFFFFFFFFFFF38
:1027D400FEFFFFFFFFFFDFFFFFFFFFFFFFFFFFFF26
:1027E400FFFFFFFFFFFFFFFFFFFFFFFFFFFFFEFFF6
:1027F400FFFFFFFFFFFFFFFFDEFFFFFFFFFFFFFF06
:10280400FFFFFFFFFFFFFFFFFFFFFFFFFFFFFFFFD4
:10281400FFFFFFFFFFFFFFFFFFFFFFFFFFFFFFFFC4
:10282400FEFFFEFFFFFFFFFFFFFFFFFFFFFFFFFFB6
:10283400FFFFFFFFFFFFFFFFFFFFFFFFFFFFFFFFA4
:10284400FFFFFFFFFFFFFFFFFFFFFFFFFFFFFFFF94
:10285400FFFFDFFFFFFFFFFFFFFFFFFFFFFFFFFFA4
:10286400FFFFFFFFFFFFFFFFFFFFFFFFFFFFFFFF74
:10287400FFFFFFFFFFFFFFFFFFFFFFFFDFFFFFFF84
:10288400FFFFFFFFFFFFFFFFFFFFFFFFFFFFFFFF54
:10289400FFFFFFFFFFFFFFFFFFFFFFFFFFFFFFFF44
:1028A400FFFFDFFFDFFFDFFFFFFFFFFFFFFFFFFF94
:1028B400FFFFFFFFFFFFFFFFFFFFFFFFFFFFFFFF24
:1028C400FFFFFFFFFFFFFFFFFFFFFFFFFFFFFFFF14
:1028D400FFFFFFFFFFFFFFFFFFFFFFFFFFFFFFFF04
:1028E400FFFFFFFFFFFFFFFFFFFFFFFFFFFFFFFFF4
:1028F400FFFFFFFFFFFFFFFFFFFFFFFFFFFFFFFFE4
:10290400FFFFFFFFFFFFFFFFFFFFFFFFFFFFFFFFD3
:10291400FFFFFFFFFFFFFFFFFFFFFFFFFFFFFFFFC3
:10292400FFFFFFFFFFFFFFFFFFFFFFFFFFFFFEFFB4
:10293400FFFFFFFFFFFFFFFFFFFFFFFFFFFFFFFFA3
:10294400FFFFFFFFFFFFFFFFFFFFFFFFFFFFFFFF93
:10295400FFFFFFFFFFFFFFFFFFFFFFFFFFFFFFFF83
:10296400FFFFFFFFFFFFFFFFFFFFFFFFFFFFFFFF73
:10393400FFFFFFFFFFFFFFFFFFFFFFFF19F609D1A6
:1039440026D027D027D027D027D027D027D027D0BC
:1039540027D027D027D027D027D027D027D027D0AB
:1039640027D027D027D027D027D027D027D027D09B
:1039740027D027D027D027D027D027D027D026D08C
:1039840009D119F6FFFFFFFFFFFFFFFFFFFFFFFF56
:10399400FFFFFFFFFFFFFFFFFFFFFFFFFFFFFFFF33
:1039A400FFFFFFFFFFFFFFFFFFFFFFFFFFFFFFFF23
:1039B400FFFFFFFFFFFFFFFFFFFF98F502C87BF645
:1039C400FFFFFFFFFFFFFFFFFFFFFFFFFFFFFFFF03
:1039D400FFFFFFFFFFFFFFFFFFFFFFFFFFFFFFFFF3
:1039E400FFFFFFFFFFFFFFFFFFFFFFFFFFFFFFFFE3
:1039F400FFFFFFFFFFFFFFFFFFFFFFFFFFFFFFFFD3
:103A04007BF602C898F5FFFFFFFFFFFFFFFFFFFFF4
:103A1400FFFFFFFFFFFFFFFFFFFFFFFFFFFFFFFFB2
:103A2400FFFFFFFFFFFFFFFFFFFFFFFFFFFFFFFFA2
:103A3400FFFFFFFFFFFFFFFFFFFF04C8BEFF30E3F0
:103A440006D047D026D006D006D006D006D026D041
:103A540047D047D047D047D047D047D047D047D0AA
:103A640026D006C805C805C805C806C806D047D06C
:103A740047D047D047D047D047D047D047D006D0CB
:103A840030E3BEFF04C8FFFFFFFFFFFFFFFFFFFFA0
:103A9400FFFFFFFFFFFFFFFFFFFFFFFFFFFFFFFF32
:103AA400FFFFFFFFFFFFFFFFFFFFFFFFFFFFFFFF22
:103AB400FFFFFFFFFFFFFFFFFFFF01C0FFFF02C883
:103AC40005C803C805C8E9D0C8D0E9D067D047D035
:103AD40003C805C805C805C805C805C804C802C880
:103AE40006C88BD98EDACFE28EDACBD947D003C899
:103AF40003C805C805C805C805C805C805C805C85C
:103B040002C8FFFF01C0FFFFFFFFFFFFFFFFFFFF32
:103B1400FFFFFFFFFFFFFFFFFFFFFFFFFFFFFFFFB1
:103B2400FFFFFFFFFFFFFFFFFFFFFFFFFFFFFFFFA1
:103B3400FFFFFFFFFFFFFFFFFFFF01C0FFFF03C801
:103B440004C8F2E3FFFFFFFFFFFFFFFFFFFFFFFFDC
:103B54009EFF05C805C806C804C805C813ECBEFF07
:103B6400FFFFFFFFFFFFFFFFFFFFFFFFFFFFFFFF61
:103B740057EDE9D003C806C806D006D006D006D053
:103B840003C8FFFF02C8FFFFFFFFFFFFFFFFFFFFA8
:103B9400FFFFFFFFFFFFFFFFFFFFFFFFFFFFFFFF31
:103BA400FFFFFFFFFFFFFFFFFFFFFFFFFFFFFFFF21
:103BB400FFFFFFFFFFFFFFFFFFFF01C0FFFF02C882
:103BC40047D0FFFFFFFFFFFFFFFFFFFFFFFFFFFFE8
:103BD400FFFFF5EC04C803C850E3FFFFFFFFFFFF3E
:103BE400FFFFFFFFFFFFFFFFFFFFFFFFFFFFFFFFE1
:103BF400FFFFFFFFB8F504C805C806D006D006D0FD
:103C040003C8FFFF02C8FFFFFFFFFFFFFFFFFFFF27
:103C1400FFFFFFFFFFFFFFFFFFFFFFFFFFFFFFFFB0
:103C2400FFFFFFFFFFFFFFFFFFFFFFFFFFFFFFFFA0
:103C3400FFFFFFFFFFFFFFFFFFFF01C0FFFF02C801
:103C44006DDAFFFF4DDAABD9CBD9CBD9CBD94AD179
:103C5400FCFEFCFE01C0F6ECFFFFFFFFFFFFFFFFD1
:103C6400FFFFFFFFFFFFFFFFFFFFFFFFFFFFFFFF60
:103C7400FFFFFFFFFFFFDFFF05C805C806D006D022
:103C840003C8FFFF02C8FFFFFFFFFFFFFFFFFFFFA7
:103C9400FFFFFFFFFFFFFFFFFFFFFFFFFFFFFFFF30
:103CA400FFFFFFFFFFFFFFFFFFFFFFFFFFFFFFFF20
:103CB400FFFFFFFFFFFFFFFFFFFF01C0FFFF02C881
:103CC4000CDAFFFF3DFFFCFEFCFEFCFEFCFEDCFE0E
:103CD400FFFF8BD96DDAFFFFFFFFFFFFFFFFFFFF41
:103CE400FFFFFFFFFFFFFFFFFFFFFFFFFFFFFFFFE0
:103CF400FFFFFFFFFFFFFFFF3DFF03C806C806D01D
:103D040003C8FFFF02C8FFFFFFFFFFFFFFFFFFFF26
:103D1400FFFFFFFFFFFFFFFFFFFFFFFFFFFFFFFFAF
:103D2400FFFFFFFFFFFFFFFFFFFFFFFFFFFFFFFF9F
:103D3400FFFFFFFFFFFFFFFFFFFF01C0FFFF03C8FF
:103D440004C8FFFFFFFFFFFFFFFFFFFFFFFFFFFFB1
:103D5400DFFF00C0FFFFFFFFFFFFFFFFFFFFFFFFCD
:103D6400FFFFFFFFFFFF9EFFFFFFFFFFFFFFFFFFC0
:103D7400FFFFFFFFFFFFFFFFFFFF30E304C806D094
:103D840003C8FFFF02C8FFFFFFFFFFFFFFFFFFFFA6
:103D9400FFFFFFFFFFFFFFFFFFFFFFFFFFFFFFFF2F
:103DA400FFFFFFFFFFFFFFFFFFFFFFFFFFFFFFFF1F
:103DB400FFFFFFFFFFFFFFFFFFFF01C0FFFF03C87F
:103DC40005C805C894EC19F65AF63AF619F6D9F569
:103DD4000CDAABD9FFFFFFFFFFFFFFFFFFFFFFFF81
:103DE400FFFFFFFFB8F501C003C8FFFFFFFFFFFFA0
:103DF400FFFFFFFFFFFFFFFFFFFFBEFF03C806C873
:103E040003C8FFFF02C8FFFFFFFFFFFFFFFFFFFF25
:103E1400FFFFFFFFFFFFFFFFFFFFFFFFFFFFFFFFAE
:103E2400FFFFFFFFFFFFFFFFFFFFFFFFFFFFFFFF9E
:103E3400FFFFFFFFFFFFFFFFFFFF01C0FFFF02C8FF
:103E440029D13AF657ED8EDA01C803C803C803C86E
:103E540003C8B5ECFFFFFFFFFFFFFFFFFFFFFFFFFE
:103E6400FFFFFFFFB2E304C803C8BBF6FFFFFFFF79
:103E7400FFFFFFFFFFFFFFFFFFFFFFFF47D005C866
:103E840003C8FFFF02C8FFFFFFFFFFFFFFFFFFFFA5
:103E9400FFFFFFFFFFFFFFFFFFFFFFFFFFFFFFFF2E
:103EA400FFFFFFFFFFFFFFFFFFFFFFFFFFFFFFFF1E
:103EB400FFFFFFFFFFFFFFFFFFFF01C0FFFF03C87E
:103EC40004C8B8F5FFFF9EFF87D067D067D088D0BD
:103ED40003C85AF6FFFFFFFFFFFFFFFFFFFFFFFFCF
:103EE400FFFFFFFF51E304C803C8F9F5FFFFFFFF1D
:103EF400FFFFFFFFFFFFFFFFFFFFFFFF8EDA05C895
:103F040003C8FFFF02C8FFFFFFFFFFFFFFFFFFFF24
:103F1400FFFFFFFFFFFFFFFFFFFFFFFFFFFFFFFFAD
:103F2400FFFFFFFFFFFFFFFFFFFFFFFFFFFFFFFF9D
:103F3400FFFFFFFFFFFFFFFFFFFF01C0FFFF02C8FE
:103F440009D1FFFFFFFFFFFFFFFFFFFFFFFFFFFFA1
:103F540002C87DFFFFFFFFFFFFFFFFFFFFFFFFFF23
:103F6400FFFFFFFF10E304C804C8F9F5FFFFFFFFDC
:103F7400FFFFFFFFFFFFFFFFFFFFFFFFF2E304C8A8
:103F840003C8FFFF02C8FFFFFFFFFFFFFFFFFFFFA4
:103F9400FFFFFFFFFFFFFFFFFFFFFFFFFFFFFFFF2D
:103FA400FFFFFFFFFFFFFFFFFFFFFFFFFFFFFFFF1D
:103FB400FFFFFFFFFFFFFFFFFFFF01C0FFFF02C87E
:103FC40009D1FFFFFFFFFFFFFFFFFFFFFFFFFFFF21
:103FD40001C0FFFFFFFFFFFFFFFFFFFFFFFFFFFF2A
:103FE400FFFFFFFFEFE203C803C8D9F5FFFFFFFFA0
:103FF400FFFFFFFFFFFFFFFFFFFFFFFFD5EC04C83C
:1040040003C8FFFF02C8FFFFFFFFFFFFFFFFFFFF23
:10401400FFFFFFFFFFFFFFFFFFFFFFFFFFFFFFFFAC
:10402400FFFFFFFFFFFFFFFFFFFFFFFFFFFFFFFF9C
:10403400FFFFFFFFFFFFFFFFFFFF01C0FFFF02C8FD
:1040440087D050E3CFE230E350E310E3AFE291E3F3
:1040540002C8FFFFFFFFFFFFFFFFFFFFFFFFFFFFA0
:10406400FFFFFFFF74ECCBD98BD97BF6FFFFFFFF7B
:10407400FFFFFFFFFFFFFFFFFFFFFFFF57ED04C838
:1040840003C8FFFF02C8FFFFFFFFFFFFFFFFFFFFA3
:10409400FFFFFFFFFFFFFFFFFFFFFFFFFFFFFFFF2C
:1040A400FFFFFFFFFFFFFFFFFFFFFFFFFFFFFFFF1C
:1040B400FFFFFFFFFFFFFFFFFFFF01C0FFFF02C87D
:1040C40009D1FFFFF6EC8BD987D071E35AF6FFFFD5
:1040D40001C0FFFFFFFFFFFFFFFFFFFFFFFFFFFF29
:1040E400FFFFFFFFFFFFFFFFFFFFFFFFFFFFFFFFDC
:1040F400FFFFFFFFFFFFFFFFFFFFFFFF57ED04C8B8
:1041040003C8FFFF02C8FFFFFFFFFFFFFFFFFFFF22
:10411400FFFFFFFFFFFFFFFFFFFFFFFFFFFFFFFFAB
:10412400FFFFFFFFFFFFFFFFFFFFFFFFFFFFFFFF9B
:10413400FFFFFFFFFFFFFFFFFFFF01C0FFFF02C8FC
:1041440009D1FFFFFFFFFFFFFFFFFFFFFFFFFFFF9F
:1041540001C0FFFFFFFFFFFFFFFFFFFFFFFFFFFFA8
:10416400FFFFFFFFFFFFFFFFFFFFFFFFFFFFFFFF5B
:10417400FFFFFFFFFFFFFFFFFFFFFFFF57ED04C837
:1041840003C8FFFF02C8FFFFFFFFFFFFFFFFFFFFA2
:10419400FFFFFFFFFFFFFFFFFFFFFFFFFFFFFFFF2B
:1041A400FFFFFFFFFFFFFFFFFFFFFFFFFFFFFFFF1B
:1041B400FFFFFFFFFFFFFFFFFFFF01C0FFFF03C87B
:1041C40005C86AD936EDFFFFFFFFBEFF77F550E360
:1041D40002C8FFFFFFFFFFFFFFFFFFFFFFFFFFFF1F
:1041E400FFFFFFFFFFFFFFFFFFFFFFFFFFFFFFFFDB
:1041F400FFFFFFFFFFFFFFFFFFFFFFFF57ED04C8B7
:1042040003C8FFFF02C8FFFFFFFFFFFFFFFFFFFF21
:10421400FFFFFFFFFFFFFFFFFFFFFFFFFFFFFFFFAA
:10422400FFFFFFFFFFFFFFFFFFFFFFFFFFFFFFFF9A
:10423400FFFFFFFFFFFFFFFFFFFF01C0FFFF02C8FB
:1042440009D1FFFFFFFFFFFFFFFFFFFFFFFFFFFF9E
:1042540001C0FFFFFFFFFFFFFFFFFFFFFFFFFFFFA7
:10426400FFFFFFFFFFFFFFFFFFFFFFFFFFFFFFFF5A
:10427400FFFFFFFFFFFFFFFFFFFFFFFF98F504C8ED
:1042840003C8FFFF02C8FFFFFFFFFFFFFFFFFFFFA1
:10429400FFFFFFFFFFFFFFFFFFFFFFFFFFFFFFFF2A
:1042A400FFFFFFFFFFFFFFFFFFFFFFFFFFFFFFFF1A
:1042B400FFFFFFFFFFFFFFFFFFFF01C0FFFF02C87B
:1042C40009D1FFFFFFFFFFFFFFFFFFFFFFFFFFFF1E
:1042D40001C0FFFFFFFFFFFFFFFFFFFFFFFFFFFF27
:1042E400FFFFFFFF77ED91E3B2E3B2E3B2E3B2E3A2
:1042F400B2E3B2E3B2E3B2E3B2E3F2E36EDA05C8E7
:1043040003C8FFFF02C8FFFFFFFFFFFFFFFFFFFF20
:10431400FFFFFFFFFFFFFFFFFFFFFFFFFFFFFFFFA9
:10432400FFFFFFFFFFFFFFFFFFFFFFFFFFFFFFFF99
:10433400FFFFFFFFFFFFFFFFFFFF01C0FFFF02C8FA
:1043440026D0EFE2CFE28EDA8EDA8EDA8EDACFE2A0
:1043540002C8FFFFFFFFFFFFFFFFFFFFFFFFFFFF9D
:10436400FFFFFFFFCFE203C804C804C803C803C8A3
:1043740003C803C803C803C803C803C804C806D0D5
:1043840003C8FFFF02C8FFFFFFFFFFFFFFFFFFFFA0
:10439400FFFFFFFFFFFFFFFFFFFFFFFFFFFFFFFF29
:1043A400FFFFFFFFFFFFFFFFFFFFFFFFFFFFFFFF19
:1043B400FFFFFFFFFFFFFFFFFFFF01C0FFFF02C87A
:1043C400E9D0FFFF2DDAFFFFFFFFFFFFFFFFFFFF35
:1043D40001C0FFFFFFFFFFFFFFFFFFFFFFFFFFFF26
:1043E400FFFFFFFF30E304C805C8E9D0D5EC54EC67
:1043F40054EC54EC54EC54EC54EC94ECEFE205C85B
:1044040003C8FFFF02C8FFFFFFFFFFFFFFFFFFFF1F
:10441400FFFFFFFFFFFFFFFFFFFFFFFFFFFFFFFFA8
:10442400FFFFFFFFFFFFFFFFFFFFFFFFFFFFFFFF98
:10443400FFFFFFFFFFFFFFFFFFFF01C0FFFF02C8F9
:1044440009D1FFFF8EDAFFFFFFFFFFFFFFFFFFFF32
:1044540001C0FFFFFFFFFFFFFFFFFFFFFFFFFFFFA5
:10446400FFFFFFFF30E304C805C8CCD9FFFFFFFFFF
:10447400FFFFFFFFFFFFFFFFFFFFFFFF98F504C8EB
:1044840003C8FFFF02C8FFFFFFFFFFFFFFFFFFFF9F
:10449400FFFFFFFFFFFFFFFFFFFFFFFFFFFFFFFF28
:1044A400FFFFFFFFFFFFFFFFFFFFFFFFFFFFFFFF18
:1044B400FFFFFFFFFFFFFFFFFFFF01C0FFFF02C879
:1044C400A8D07BF64AD9B8F557ED57ED57EDB8F5B6
:1044D40002C8FFFFFFFFFFFFFFFFFFFFFFFFFFFF1C
:1044E400FFFFFFFF30E304C805C8ABD9FFFFFFFFA0
:1044F400FFFFFFFFFFFFFFFFFFFFFFFF57ED04C8B4
:1045040003C8FFFF02C8FFFFFFFFFFFFFFFFFFFF1E
:10451400FFFFFFFFFFFFFFFFFFFFFFFFFFFFFFFFA7
:10452400FFFFFFFFFFFFFFFFFFFFFFFFFFFFFFFF97
:10453400FFFFFFFFFFFFFFFFFFFF01C0FFFF03C8F7
:1045440004C8A8D0D2E371E371E371E371E3B2E389
:1045540002C8DFFFFFFFFFFFFFFFFFFFFFFFFFFFBB
:10456400FFFFFFFF30E304C805C8ABD9FFFFFFFF1F
:10457400FFFFFFFFFFFFFFFFFFFFFFFF57ED04C833
:1045840003C8FFFF02C8FFFFFFFFFFFFFFFFFFFF9E
:10459400FFFFFFFFFFFFFFFFFFFFFFFFFFFFFFFF27
:1045A400FFFFFFFFFFFFFFFFFFFFFFFFFFFFFFFF17
:1045B400FFFFFFFFFFFFFFFFFFFF01C0FFFF02C878
:1045C40088D0FFFFFFFFFFFFFFFFFFFFFFFFFFFF9D
:1045D40002C85DFFFFFFFFFFFFFFFFFFFFFFFFFFBD
:1045E400FFFFFFFF30E304C805C8ABD9FFFFFFFF9F
:1045F400FFFFFFFFFFFFFFFFFFFFFFFF16ED04C8F4
:1046040003C8FFFF02C8FFFFFFFFFFFFFFFFFFFF1D
:10461400FFFFFFFFFFFFFFFFFFFFFFFFFFFFFFFFA6
:10462400FFFFFFFFFFFFFFFFFFFFFFFFFFFFFFFF96
:10463400FFFFFFFFFFFFFFFFFFFF01C0FFFF02C8F7
:104644002DDAFFFFFFFFFFFFFFFFFFFFFFFFFFFF6D
:1046540005C83AF6FFFFFFFFFFFFFFFFFFFFFFFF65
:10466400FFFFFFFF50E304C805C80DDAFFFFFFFF9B
:10467400FFFFFFFFFFFFFFFFFFFFFFFF33EC04C857
:1046840003C8FFFF02C8FFFFFFFFFFFFFFFFFFFF9D
:10469400FFFFFFFFFFFFFFFFFFFFFFFFFFFFFFFF26
:1046A400FFFFFFFFFFFFFFFFFFFFFFFFFFFFFFFF16
:1046B400FFFFFFFFFFFFFFFFFFFF01C0FFFF03C876
:1046C40004C8DFFF09D103C804C804C804C804C867
:1046D40003C8D5ECFFFFFFFFFFFFFFFFFFFFFFFF56
:1046E400FFFFFFFFD2E304C804C8EFE2FFFFFFFFB0
:1046F400FFFFFFFFFFFFFFFFFFFFFFFFAEDA05C86D
:1047040003C8FFFF02C8FFFFFFFFFFFFFFFFFFFF1C
:10471400FFFFFFFFFFFFFFFFFFFFFFFFFFFFFFFFA5
:10472400FFFFFFFFFFFFFFFFFFFFFFFFFFFFFFFF95
:10473400FFFFFFFFFFFFFFFFFFFF01C0FFFF03C8F5
:1047440003C87BF6FFFFFFFFFFFFFFFFFFFFFFFF35
:10475400D2E36BD9FFFFFFFFFFFFFFFFFFFFFFFF68
:10476400FFFFFFFF3AF601C001C85AF6FFFFFFFF43
:10477400FFFFFFFFFFFFFFFFFFFFFFFF05C805C8A7
:1047840003C8FFFF02C8FFFFFFFFFFFFFFFFFFFF9C
:10479400FFFFFFFFFFFFFFFFFFFFFFFFFFFFFFFF25
:1047A400FFFFFFFFFFFFFFFFFFFFFFFFFFFFFFFF15
:1047B400FFFFFFFFFFFFFFFFFFFF01C0FFFF02C876
:1047C4000CDAFFFFFFFFFFFFFFFFFFFFFFFFFFFF0D
:1047D400FFFF00C0DFFFFFFFFFFFFFFFFFFFFFFF43
:1047E400FFFFFFFFFFFFDFFFFFFFFFFFFFFFFFFFF5
:1047F400FFFFFFFFFFFFFFFFFFFF57ED03C806D0DA
:1048040003C8FFFF02C8FFFFFFFFFFFFFFFFFFFF1B
:10481400FFFFFFFFFFFFFFFFFFFFFFFFFFFFFFFFA4
:10482400FFFFFFFFFFFFFFFFFFFFFFFFFFFFFFFF94
:10483400FFFFFFFFFFFFFFFFFFFF01C0FFFF02C8F5
:10484400C9D0FFFFD8F5F6EC16ED16ED16ED16ED12
:1048540098F5C8D04AD1FFFFFFFFFFFFFFFFFFFF1E
:10486400FFFFFFFFFFFFFFFFFFFFFFFFFFFFFFFF54
:10487400FFFFFFFFFFFFFFFFFFFF04C805C806D0CF
:1048840003C8FFFF02C8FFFFFFFFFFFFFFFFFFFF9B
:10489400FFFFFFFFFFFFFFFFFFFFFFFFFFFFFFFF24
:1048A400FFFFFFFFFFFFFFFFFFFFFFFFFFFFFFFF14
:1048B400FFFFFFFFFFFFFFFFFFFF01C0FFFF02C875
:1048C40005C81DFF91E34DDA6EDA6EDA6EDA6EDA40
:1048D4006EDA30E304C850E3FFFFFFFFFFFFFFFF82
:1048E400FFFFFFFFFFFFFFFFFFFFFFFFFFFFFFFFD4
:1048F400FFFFFFFFFFFFFFFFE9D005C806D006D08A
:1049040003C8FFFF02C8FFFFFFFFFFFFFFFFFFFF1A
:10491400FFFFFFFFFFFFFFFFFFFFFFFFFFFFFFFFA3
:10492400FFFFFFFFFFFFFFFFFFFFFFFFFFFFFFFF93
:10493400FFFFFFFFFFFFFFFFFFFF01C0FFFF02C8F4
:1049440009D1FFFFFFFFFFFFFFFFFFFFFFFFFFFF97
:10495400FFFFFFFFDFFF02C8ABD9FFFFFFFFFFFF31
:10496400FFFFFFFFFFFFFFFFFFFFFFFFFFFFFFFF53
:10497400FFFFFFFFFFFFA8D004C806D006D006D073
:1049840003C8FFFF02C8FFFFFFFFFFFFFFFFFFFF9A
:10499400FFFFFFFFFFFFFFFFFFFFFFFFFFFFFFFF23
:1049A400FFFFFFFFFFFFFFFFFFFFFFFFFFFFFFFF13
:1049B400FFFFFFFFFFFFFFFFFFFF01C0FFFF02C874
:1049C40009D1FFFFFFFFFFFFFFFFFFFFFFFFFFFF17
:1049D400FFFFFFFFFFFFFFFF6EDA02C810E3BBF625
:1049E400FFFFFFFFFFFFFFFFFFFFFFFFFFFFFFFFD3
:1049F4005DFF50E303C805C806D006D006D006D034
:104A040003C8FFFF02C8FFFFFFFFFFFFFFFFFFFF19
:104A1400FFFFFFFFFFFFFFFFFFFFFFFFFFFFFFFFA2
:104A2400FFFFFFFFFFFFFFFFFFFFFFFFFFFFFFFF92
:104A3400FFFFFFFFFFFFFFFFFFFF01C0FFFF01C8F4
:104A440005C8E9D0C8D0C8D0C8D0C8D0C8D0C8D04C
:104A5400C8D0C8D0C8D0E9D08BD926D004C803C8E0
:104A640004C8E9D00CDAAEE2AFE24DDA4AD105C8A7
:104A740002C804C805C805C805C805C805C805C8CE
:104A840002C8FFFF01C0FFFFFFFFFFFFFFFFFFFFA3
:104A9400FFFFFFFFFFFFFFFFFFFFFFFFFFFFFFFF22
:104AA400FFFFFFFFFFFFFFFFFFFFFFFFFFFFFFFF12
:104AB400FFFFFFFFFFFFFFFFFFFF05C89EFF30E37F
:104AC40047D067D067D067D067D067D067D067D04A
:104AD40067D067D067D067D067D088D0A8D0A8D077
:104AE40088D067D047D047D027D047D067D088D068
:104AF400A8D0A8D0A8D0A8D0A8D0A8D0A8D067D033
:104B040030E3BEFF04C8FFFFFFFFFFFFFFFFFFFF0F
:104B1400FFFFFFFFFFFFFFFFFFFFFFFFFFFFFFFFA1
:104B2400FFFFFFFFFFFFFFFFFFFFFFFFFFFFFFFF91
:104B3400FFFFFFFFFFFFFFFFFFFF98F502C87AF6B4
:104B4400FFFFFFFFFFFFFFFFFFFFFFFFFFFFFFFF71
:104B5400FFFFFFFFFFFFFFFFFFFFFFFFFFFFFFFF61
:104B6400FFFFFFFFFFFFFFFFFFFFFFFFFFFFFFFF51
:104B7400FFFFFFFFFFFFFFFFFFFFFFFFFFFFFFFF41
:104B84007AF602C898F5FFFFFFFFFFFFFFFFFFFF64
:104B9400FFFFFFFFFFFFFFFFFFFFFFFFFFFFFFFF21
:104BA400FFFFFFFFFFFFFFFFFFFFFFFFFFFFFFFF11
:104BB400FFFFFFFFFFFFFFFFFFFFFFFF19F609D114
:104BC40026D026D026D026D026D026D026D026D031
:104BD40026D026D026D026D026D026D026D026D021
:104BE40026D026D026D026D026D026D026D026D011
:104BF40026D026D026D026D026D026D026D026D001
:104C040009D119F6FFFFFFFFFFFFFFFFFFFFFFFFC3
:104C1400FFFFFFFFFFFFFFFFFFFFFFFFFFFFFFFFA0
:104C2400FFFFFFFFFFFFFFFFFFFFFFFFFFFFFFFF90
:104C3400FFFFFFFFFFFFFFFFFFFFFFFFFFFFFFFF80
:104C4400FFFFFFFFFFFFFFFFFFFFFFFFFFFFFFFF70
:1057C40000000000A21030848A520421000000006E
:1057D40000000000200000000000000000000000A5
:1057E4000000000000002000000000000000000095
:1057F40000000000000000000000000000000000A5
:105804000000000000000000000000000000000094
:105814000000000000000000000000000000000084
:105824000000000000000000000000000000000074
:105834000000000000000000000000002000000044
:105844000000000079CEFFFFFFFFFFFF3CE775ADCE
:10585400CF7B084220000000200000000000000070
:105864000000200000000000000000000000000014
:105874000000000000000000000000000000000024
:105884000000000000000000000000000000000014
:105894000000000000000000000000000000000004
:1058A40000000000000000000000000000000000F4
:1058B40000000000200000000000000000000000C4
:1058C400000075ADFFFFFFFFFFFFFFFFFFFFFFFFBE
:1058D400FFFFFFFFFFFF79CE518C694AC318000018
:1058E40000000000000000000000000000000000B4
:1058F40000000000000000000000000000000000A4
:105904000000000000000000000000000000000093
:105914000000000000000000000000000000000083
:105924000000000000000000000000000000000073
:105934000000200000000000000000000000000043
:1059440034A5FFFFFFFFFFFFFFFFFFFFFFFFFFFF88
:10595400FFFFFFFFDFFFFFFFFFFFFFFFDFFF7DEF25
:10596400E739000000000000000000000000000013
:105974000000000000000000000000000000000023
:105984000000000000000000000000000000000013
:105994000000000000000000000000000000000003
:1059A40000000000000000000000000000000000F3
:1059B4000000000000000000000000000000518C06
:1059C400FFFFFFFFFFFFFFFFFFFFFFFFFFFFFFFFE3
:1059D400FFFFFFFFFFFFFFFFFFFFFFFFFFFFFFFFD3
:1059E400BAD6000000000000000000000000000023
:1059F40000000000000000000000000000000000A3
:105A04000000000000000000000000000000000092
:105A14000000000000000000000000000000000082
:105A24000000000000000000000000000000000072
:105A3400000000000000000000000000AE73FFFF43
:105A4400FFFFFFFFFFFFFFFF518C694AB2949AD614
:105A5400FFFFFFFFFFFFFFFFFFFFFFFFFFFFFFFF52
:105A6400FFFFAE73000000002000000000000000F3
:105A74000000000000000000000000000000000022
:105A84000000000000000000000000000000000012
:105A94000000000000000000000000000000000002
:105AA40000000000000000000000000000000000F2
:105AB400000000000000000000002C63FFFFFFFF57
:105AC400FFFFFFFFFFFF14A500000000000000001F
:105AD40061082842AE73B6B55DEFFFFFFFFFFFFF1D
:105AE400FFFFFFFF04210000000000000000000091
:105AF40000000000000000000000000000000000A2
:105B04000000000000000000000000000000000091
:105B14000000000000000000000000000000000081
:105B24000000000000000000000000000000000071
:105B340000000000000000002842FFFFFFFFFFFFFD
:105B4400FFFFFFFFB6B500000000000000000000EA
:105B540000000000000000000000518CFFFFFFFF68
:105B6400FFFFFFFF75AD00002000000000000000F3
:105B74000000000000000000000000000000000021
:105B84000000000000000000000000000000000011
:105B94000000000000000000000000000000000001
:105BA40000000000000000000000000000000000F1
:105BB4000000000000006529FFFFDFFFFFFFFFFF7B
:105BC400FFFFD7BD0000000000000000000000003F
:105BD400200000000000000000000000BAD6FFFF13
:105BE400DFFFFFFFFFFFAA520000000000000000DB
:105BF40000000000000000000000000000000000A1
:105C04000000000000000000000000000000000090
:105C14000000000000000000000000000000000080
:105C24000000000000000000000000000000000070
:105C3400000000000000000059CEFFFFFFFFFFFF3F
:105C4400FFFFEF7B000000000000000000000000E8
:105C54000000000000000000000000000842FFFFF8
:105C6400FFFFDFFFFFFF7DEF0000000000000000EA
:105C74000000000000000000000000000000000020
:105C84000000000000000000000000000000000010
:105C94000000000000000000000000000000000000
:105CA40000000000000000000000000000000000F0
:105CB4000000000000000000E318FFFFFFFFFFFFEB
:105CC400FFFFDFFF042100000000000000000000CF
:105CD400000000000000000000002000000055AD9E
:105CE400FFFFFFFFFFFFFFFF718C000000000000BB
:105CF40000000000000000000000000000000000A0
:105D0400000000000000000000000000000000008F
:105D1400000000000000000000000000000000007F
:105D2400000000000000000000000000000000006F
:105D340000000000000000000000EF7BFFFFFFFFF9
:105D4400FFFFFFFF38C62000000000000000000035
:105D540000000000000000000000000000006108D6
:105D64007DEFFFFFFFFFFFFFFFFFA63120000000D4
:105D7400000000000000000000000000000000001F
:105D8400000000000000000000000000000000000F
:105D940000000000000000000000000000000000FF
:105DA40000000000000000000000000000000000EF
:105DB400000000000000000000000000BAD6FFFF51
:105DC400FFFFFFFFFFFF2C63000000000000000046
:105DD40000000000000000000000000000000000BF
:105DE400CB5AFFFFFFFFFFFFFFFF79CE000000004B
:105DF400000000000000000000000000000000009F
:105E0400000000000000000000000000000000008E
:105E1400000000000000000000000000000000007E
:105E2400000000000000000000000000000000006E
:105E34000000000000000000000000002421FFFF1B
:105E4400FFFFFFFFFFFFFFFFE3180000000000005B
:105E5400000000000000000000000000000000003E
:105E6400494AFFFFFFFFFFFFFFFFFFFF8210000013
:105E7400000000000000000000000000000000001E
:105E8400000000000000000000000000000000000E
:105E940000000000000000000000000000000000FE
:105EA40000000000000000000000000000000000EE
:105EB400000000000000000000000000000030842A
:105EC400FFFFFFFFFFFFFFFFD7BD00000000000042
:105ED400000000000000000000000000000082102C
:105EE4007DEFFFFFFFFFFFFFFFFFEB5A0000000005
:105EF40045292421410800000000000000000000A2
:105F0400000000000000000000000000200000006D
:105F1400000000000000000000000000000000007D
:105F2400000000000000000000000000000000006D
:105F3400000020000000000000000000000020001D
:105F4400FBDEFFFFFFFFFFFFFFFF6D6B410820003B
:105F5400000000000000000000000000000018C65F
:105F6400FFFFFFFFFFFFFFFF75AD00000000A21061
:105F7400DFFFFFFF7DEFBAD634A58E73C739A210B9
:105F840000000000000020000000000000000000ED
:105F940000000000000000000000000000000000FD
:105FA40000000000000000000000000000000000ED
:105FB40000000000000000000000000020000000BD
:105FC400C739FFFFFFFFFFFFFFFFFFFFFFFF7DEF6D
:105FD400FBDE18C6D39C8E73694A86316D6BFFFF56
:105FE400FFFFFFFFFFFFBEF7000000002000D7BD4A
:105FF400FFFFFFFFFFFFFFFFDFFFFFFFFFFFFFFFCD
:106004009EF779CE55AD6108000000000000200025
:10601400000000000000000000000000000000007C
:10602400000000000000000000000000000000006C
:10603400000000002000000000002000000000001C
:106044000000D39CDFFFFFFFFFFFFFFFFFFFFFFF09
:10605400FFFFDFFFFFFFFFFFFFFFFFFFFFFFFFFF6C
:10606400FFFFFFFFFFFF494A00000000AA52FFFFA5
:10607400FFFFFFFFFFFFFFFFFFFFFFFFFFFFFFFF2C
:10608400FFFFFFFFFFFFD39C0000000000000000A3
:1060940000000000000000000000000000000000FC
:1060A40000000000000000000000000000000000EC
:1060B40000000000000000000000000000000000DC
:1060C40020000000DFFFFFFFFFFFFFFFFFFFFFFFD8
:1060D400FFFFFFFFDFFFFFFFFFFFFFFFFFFFFFFFEC
:1060E400FFFFDFFF718C00000000A210FFFFFFFF25
:1060F400FFFFFFFFFFFFFFFFFFFFDFFFFFFFFFFFCC
:10610400FFFFFFFFFFFFFFFFE73900000000000073
:10611400000000000000000000000000000000007B
:10612400000000000000000000000000000000006B
:10613400000000000000000000000000000000005B
:1061440000000000694ADFFFFFFFFFFFFFFFDFFFE2
:10615400FFFFDFFFFFFFFFFFFFFFDFFFFFFFFFFF8B
:10616400FFFFFBDE000000000000B6B5FFFFFFFFED
:10617400FFFFFFFFF7BD14A5DBDE9EF7FFFFFFFF68
:10618400FFFFFFFFFFFFFFFF79CE000000000000CC
:1061940000000000000000000000000000000000FB
:1061A40000000000000000000000000000000000EB
:1061B40000000000000000000000000000000000DB
:1061C4000000200000008210E3188631694A108420
:1061D40014A538C61CE7BEF7FFFFFFFFFFFFFFFF54
:1061E400FFFF6529000000004D6BFFFFFFFFFFFF6D
:1061F400FFFF5DEF41080000000061084529494A9E
:1062040059CEDFFFFFFFFFFFDFFF6D6B00000000D3
:10621400000000000000000000000000000000007A
:10622400000000000000000000000000000000006A
:10623400000000000000200000000000000000003A
:10624400000000000000000000000000000000004A
:106254000000000000000000610865298A521084D3
:10626400EB5A00000000A210FFFFFFFFFFFFFFFF3B
:10627400FFFFA63100000000000000002000000025
:10628400A210FFFFFFFFFFFFFFFFFFFF61080000F9
:1062940000000000000000000000000000000000FA
:1062A40000000000000000000000000000000000EA
:1062B40000000000000000000000000000000000DA
:1062C40000000000452992944D6B694A45296108F4
:1062D400200000000000000000000000000000009A
:1062E400000000000000F7BDFFFFFFFFFFFFFFFFFE
:1062F400D39C00000000000000000000000000002B
:106304000000518CFFFFFFFFFFFFFFFFF39C000025
:106314000000000000000000000000000000000079
:106324000000000000000000000000000000000069
:106334000000000000000000000000000000200039
:10634400000020007DEFDFFFFFFFFFFFFFFFFFFFE7
:10635400FFFF3CE759CED7BD718C8E73494A45295E
:106364006108000020009AD6FFFFDFFFFFFFFFFF58
:10637400EB5A0000000000000000000000000000D4
:1063840000002000FBDEFFFFFFFFFFFFFFFF0842CE
:1063940000000000000000000000000000000000F9
:1063A40000000000000000000000000000000000E9
:1063B4000000000020000000000000002000000099
:1063C4000000B6B5FFFFFFFFFFFFFFFFFFFFFFFF6A
:1063D400FFFFFFFFFFFFFFFFFFFFFFFFFFFFFFFFC9
:1063E400FBDE000000008631FFFFFFFFFFFFFFFF21
:1063F400FFFF00000000000020000000000000007B
:10640400000000002842FFFFFFFFFFFFFFFFFBDE4D
:106414000000000000000000000000000000000078
:106424000000000000000000000000000000000068
:106434000000000000000000000000000000000058
:10644400EF7BFFFFFFFFFFFFFFFFFFFFFFFFFFFFEC
:10645400FFFFFFFFFFFFFFFFFFFFFFFFFFFFFFFF48
:10646400FFFF8E7300000000F39CFFFFFFFFFFFFA0
:10647400FFFFB294200000000000000000000000B4
:10648400000000000000D7BDFFFFFFFFFFFFFFFF7C
:10649400EB5A0000000000000000000000000000B3
:1064A40000000000000000000000000000000000E8
:1064B4000000000000002000000000000000694A05
:1064C400FFFFFFFFFFFFFFFFFFFF9EF7DFFFFFFF61
:1064D400FFFFFFFFFFFFFFFFFFFFFFFFFFFFFFFFC8
:1064E400FFFFFFFF0421000020001CE7FFFFFFFF68
:1064F400FFFFFFFFE739200000000000200000003C
:10650400000000000000FBDEFFFFFFFFFFFFFFFFB6
:1065140024210000200000002000000000000000F2
:106524000000000000000000000000000000000067
:10653400000000000000000000000000A210BEF7F0
:10654400FFFFFFFFFFFFFFFF518CE318C739694AC4
:106554004D6B9294B6B59AD63CE7BEF7FFFFFFFFAA
:10656400FFFFFFFFB6B500000000AA52FFFFFFFFC8
:10657400FFFFFFFFDBDE0000000000000000000062
:10658400000000008A52DFFFFFFFFFFFFFFF55AD51
:1065940000000000000000000000000020000000D7
:1065A40000000000000000000000000000000000E7
:1065B400000000000000000000000000DBDEFFFF20
:1065C400FFFFFFFFFFFF59CE0000000000000000A6
:1065D4000000000000000000000041089AD6FFFF00
:1065E400FFFFFFFFFFFFCB5A00000000D7BDFFFFF6
:1065F400FFFFFFFFFFFFAE7300000000000000007C
:1066040000000000FBDEFFFFFFFFFFFFBEF7E31803
:106614000000000000000000000000000000000076
:106624000000000000000000000000000000000066
:106634000000000000000000000075ADDFFFFFFF58
:10664400FFFFFFFF1CE761080000000000000000DE
:106654000000000020000000000000008631FFFF61
:10666400FFFFFFFFFFFFDFFF20000000C318FFFF55
:10667400FFFFFFFFFFFFFFFF3CE779CE38C655ADB4
:10668400B29434A5FFFFFFFFDFFFFFFFB2940000C9
:1066940000000000000000000000000000000000F6
:1066A40000000000000000000000000000000000E6
:1066B4000000000000000000EB5AFFFFFFFFFFFF97
:1066C400FFFFFFFFA63100000000000000000000F3
:1066D400000020000000000000000000000034A5BD
:1066E400FFFFDFFFFFFFFFFF929400000000108414
:1066F400FFFFFFFFFFFFFFFFFFFFFFFFFFFFFFFFA6
:10670400FFFFFFFFFFFFFFFFFFFFFFFF82100000FF
:106714000000000000000000000000000000000075
:106724000000000000000000000000000000000065
:10673400000000000000E739FFFFDFFFFFFFFFFF5D
:10674400FFFF4D6B0000000000000000000000008F
:1067540000000000000000000000000000006108CC
:106764007DEFFFFFDFFFFFFFFFFFE73920000000A1
:1067740079CEFFFFFFFFFFFFFFFFFFFFDFFFFFFFFC
:10678400FFFFFFFFDFFFFFFFFFFF1084200000007B
:1067940000000000000000000000000000000000F5
:1067A40000000000000000000000000000000000E5
:1067B4000000000041083CE7FFFFFFFFFFFFFFFF71
:1067C400F39C000000000000000000002000000016
:1067D40000000000000000000000000000000000B5
:1067E400AA52FFFFFFFFDFFFFFFFFBDE00000000F8
:1067F4008631FFFFFFFFFFFFFFFFFFFFFFFFFFFFEC
:10680400FFFFBEF7FFFFFFFFBEF78210000000008E
:106814000000000000000000000000000000000074
:106824000000000000000000000000000000000064
:1068340000000000000055ADFFFFFFFFFFFFFFFF5A
:1068440014A500000000000000002000000000006B
:106854000000000000000000000000000000200014
:106864000000B6B5FFFFFFFFFFFFFFFFCF7B000077
:1068740000002842EB5A8E73CF7B929455ADB6B587
:1068840059CE3CE79EF7FFFFCF7B000000002000BD
:1068940000000000000000000000000000000000F4
:1068A40000000000000000000000000000000000E4
:1068B40000000000000020005DEFFFFFFFFFFFFF6E
:1068C400FFFFAA52000000000000000000002000AA
:1068D40000000000000000000000000000000000B4
:1068E40000008A52FFFFFFFFFFFFFFFFDBDE000017
:1068F4000000000000000000200000002000000054
:106904000000000000000000000000000000000083
:106914000000000000000000000000000000000073
:106924000000000000000000000000000000000063
:106934000000000020000000694ADFFFFFFFFFFFA6
:10694400FFFFBEF700000000000000000000000090
:1069540000002000000000002000000000002000D3
:106964000000FBDEFFFFFFFFFFFFDFFF0842000028
:1069740000002000000000000000000000000000F3
:1069840020000000000000000000000000000000E3
:1069940000000000000000000000000000000000F3
:1069A40000000000000000000000000000000000E3
:1069B4000000000000000000000075ADFFFFFFFFB5
:1069C400FFFFFFFF34A500000000000000000000EE
:1069D40000000000000000000000000000000000B3
:1069E400EF7BFFFFFFFFFFFFDFFF96B50000000016
:1069F4000000000020000000000000000000000073
:106A04000000000000000000200000000000000062
:106A14000000000000000000000000000000000072
:106A24000000000000000000000000000000000062
:106A340000000000000000000000A2105DEFFFFF56
:106A4400FFFFFFFFFFFF494A0000000000000000B5
:106A5400000000000000000000000000000004210D
:106A6400DFFFFFFFFFFFFFFFDFFFC3180000000091
:106A74000000000000000000000000000000000012
:106A84000000000000000000000000000000000002
:106A940000000000000000000000000000000000F2
:106AA40000000000000000000000000000000000E2
:106AB400000000000000000000000000AA52FFFFD8
:106AC400FFFFFFFFFFFF3CE70000000000000000A5
:106AD4000000000000000000000000000000D7BD1E
:106AE400FFFFDFFFFFFFFFFF6D6B000000000000F2
:106AF4000000000000000000000000000000000092
:106B04000000000000000000000000000000000081
:106B14000000000000000000000000000000000071
:106B24000000000000000000000000000000000061
:106B34000000000000000000000000000000B6B5E6
:106B4400FFFFFFFFFFFFFFFFD39C0000200020009A
:106B5400000020000000000020000000694AFFFF40
:106B6400FFFFFFFFFFFFDBDE00000000000000006E
:106B74000000000000000000000000000000000011
:106B84000000000000000000000000000000000001
:106B940000000000000000000000000000000000F1
:106BA40000000000000000000000000000000000E1
:106BB4000000000000000000200000000000A210FF
:106BC400DFFFFFFFFFFFFFFFFFFFBAD6BAD6DBDE12
:106BD400BAD6BAD6DBDEFBDEBAD69AD6BEF7FFFF4C
:106BE400FFFFFFFFFFFF284200000000000000003D
:106BF4000000000000000000000000000000000091
:106C04000000000000000000000000000000000080
:106C14000000000000000000000000000000000070
:106C24000000000000000000000000000000000060
:106C34000000000000000000000000000000200030
:106C44000C63FFFFFFFFFFFFBEF7FFFFFFFFFFFF28
:106C5400FFFFFFFFDFFFFFFFFFFFFFFFFFFFFFFF60
:106C6400DFFFFFFF14A5000000000000000000008B
:106C74000000000000000000000000000000000010
:106C84000000000000000000000000000000000000
:106C940000000000000000000000000000000000F0
:106CA40000000000000000000000000000000000E0
:106CB4000000000000000000000020002000000090
:106CC4000000D7BDFFFFFFFFFFFFDFFFFFFFFFFF58
:106CD400FFFFFFFFFFFFFFFFFFFFFFFFFFFFFFFFC0
:106CE400FFFFDFFFA2100000000000000000000012
:106CF4000000000000000000000000000000000090
:106D0400000000000000000000000000000000007F
:106D1400000000000000000000000000000000006F
:106D2400000000000000000000000000000000005F
:106D3400200000000000000000000000000000002F
:106D44000000A210DFFFFFFFFFFFFFFFFFFFFFFFB9
:106D5400FFFFFFFFFFFFFFFFFFFFFFFFFFFFFFFF3F
:106D6400FFFF2C6300000000000020000000000072
:106D7400000000000000000000000000000000000F
:106D840000000000000000000000000000000000FF
:106D940000000000000000000000000000000000EF
:106DA40000000000000000000000000000000000DF
:106DB40000000000000000000000000000000000CF
:106DC400000000002842AE736D6B6D6B6D6B718CAF
:106DD400718C718C718C718C718C718C9294718C9E
:106DE40030840000000020000000000000000000CB
:106DF400000000000000000000000000000000008F
:106E0400000000000000000000000000000000007E
:106E1400000000000000000000000000000000006E
:106E2400000000000000000000000000000000005E
:1078B4004300E4E8E3E8208000000000000000004A
:1078C4000000A458E4E8E4E8E4E8C2E80030010079
:1078D400C480E4E881C80100C480E4E8C2E8003060
:1078E4004300E4E8E3E80058000000000000000062
:1078F4000000A458E4E8E4E8E4E8C2E8003000004A
:107904002200E4C8E3E820804300E4E8E3E82080C0
:107914000000000000000000000000000000000063
:107924000000000000000000000000000000000053
:107934004300E4E8E3E820800000000000000100C8
:10794400C480E4E8E4E8E4E8E4E8E4E8C2E8003019
:10795400A458E4E8A1E82200E4C8E4E8E3E82080CD
:107964008330E4E8A1E8000000000000000001000A
:10797400C480E4E8E4E8E4E8E4E8E4E8C2E80030E9
:107984002200E4C8E3E820804300E4E8E3E8208040
:1079940000000000000000000000000000000000E3
:1079A40000000000000000000000000000000000D3
:1079B4004300E4E8E3E82080000000000000430006
:1079C400E4E8E4E840A800004300E4E8E4E840A870
:1079D4004300E4E8C2E84330E4E8E4E8E4E881C8CA
:1079E400A458E4E881C8000000000000000043003F
:1079F400E4E8E4E840A800004300E4E8E4E840A840
:107A04002200E4C8E3E820804300E4E8E3E82080BF
:107A14000000000000000000000000000000000062
:107A24000000000000000000000000000000000052
:107A34004300E4E8E3E82080000000000000833015
:107A4400E4E8E3E8005800000100C480E4E881C8E9
:107A54002200E4C8E3E8A4A8E4E8A3A8E4E8A2E8D0
:107A6400C480E4E840A80000000000000000833067
:107A7400E4E8E3E8005800000100C480E4E881C8B9
:107A84002200E4C8E3E820804300E4E8E3E820803F
:107A940000000000000000000000000000000000E2
:107AA40000000000000000000000000000000000D2
:107AB4004300E4E8E3E82080000000000000833095
:107AC400E4E8E3E8005800000100C480E4E881C869
:107AD4000100E4A8E4E8E4E8E3E82180E4A8E4E8B9
:107AE400E4E8E3E8005800000000000000008330F0
:107AF400E4E8E3E8005800000100C480E4E881C839
:107B04002200E4C8E3E820804300E4E8E3E82080BE
:107B14000000000000000000000000000000000061
:107B24000000000000000000000000000000000051
:107B34004300E4E8E3E82080000000000000430084
:107B4400E4E8E4E840A800004300E4E8E4E840A8EE
:107B54000000A458E4E8E4E8C2E80130C480E4E8A2
:107B6400E4E8C2E800300000000000000000430028
:107B7400E4E8E4E840A800004300E4E8E4E840A8BE
:107B84002200E4C8E3E820804300E4E8E3E820803E
:107B940000000000000000000000000000000000E1
:107BA40000000000000000000000000000000000D1
:107BB4004300E4E8E4E8E4E8E4E8E4E8A1E80100F8
:107BC400C480E4E8E4E8E4E8E4E8E4E8C2E8003097
:107BD40000008330E4E8E4E881C800008330E4E88E
:107BE400E4E8A1E80000000000000000000001003B
:107BF400C480E4E8E4E8E4E8E4E8E4E8C2E8003067
:107C04002200E4C8E3E820804300E4E8E4E8E4E890
:107C1400E4E8E4E8A1E8000000000000000000003F
:107C24000000000000000000000000000000000050
:107C34004300E4E8E4E8E4E8E4E8E4E8A1E8000078
:107C44000000A458E4E8E4E8E4E8C2E800300000F6
:107C540000004300E4E8E4E840A800002200E4C88F
:107C6400E4E881C8000000000000000000000000FB
:107C74000000A458E4E8E4E8E4E8C2E800300000C6
:107C84002200E4C8E3E820804300E4E8E4E8E4E810
:107C9400E4E8E4E8A1E800000000000000000000BF
:107CA40000000000000000000000000000000000D0
:107CB40000000000000000000000000000000000C0
:107CC40000000000000000000000000000000000B0
:107CD40000000000000000000000000000000000A0
:1080340000000000000000004300E4E8E3E82080C2
:108044000000000000002200E4C8E4E8E4E8E4E8FA
:10805400E4E8E4E840A8A458E4E8C2E800300000FA
:108064000000A458E4E8C2E82230E4C8E4E8E4E804
:10807400E4E8E4E8E4E840A84300E4E8E3E8208036
:1080840000000000000000000000000000000000EC
:1080940000000000000000000000000000000000DC
:1080A40000000000000000000000000000000000CC
:1080B40000000000000000004300E4E8E3E8208042
:1080C4000000000000002200E4C8E4E8E4E8E4E87A
:1080D400E4E8E4E840A84300E4E8E3E820800000A2
:1080E4002200E4C8E4E840A82200E4C8E4E8E4E8A4
:1080F400E4E8E4E8E4E840A84300E4E8E3E82080B6
:10810400000000000000000000000000000000006B
:10811400000000000000000000000000000000005B
:10812400000000000000000000000000000000004B
:1081340000000000000000004300E4E8E3E82080C1
:108144000000000000002200E4C8E4E840A80000A9
:108154000000000000000100E4A8E4E840A80000DA
:108164008330E4E8E3E800582200E4C8E4E840A8E7
:1081740000000000000000004300E4E8E3E8208081
:1081840000000000000000000000000000000000EB
:1081940000000000000000000000000000000000DB
:1081A40000000000000000000000000000000000CB
:1081B40000000000000000004300E4E8E3E8208041
:1081C4000000000000002200E4C8E4E8E4E8E4E879
:1081D400E4E8E3E820800000A458E4E8A1E8010012
:1081E400C480E4E881C800002200E4C8E4E8E4E8CC
:1081F400E4E8E4E8E3E820804300E4E8E3E82080FE
:10820400000000000000000000000000000000006A
:10821400000000000000000000000000000000005A
:10822400000000000000000000000000000000004A
:1082340000000000000000004300E4E8E3E82080C0
:108244000000000000002200E4C8E4E8E4E8E4E8F8
:10825400E4E8E3E8208000002200E4C8E3E82258D0
:10826400E4C8E3E8208000002200E4C8E4E8E4E88D
:10827400E4E8E4E8E3E820804300E4E8E3E820807D
:1082840000000000000000000000000000000000EA
:1082940000000000000000000000000000000000DA
:1082A40000000000000000000000000000000000CA
:1082B40000000000000000004300E4E8E3E8208040
:1082C4000000000000002200E4C8E4E840A8000028
:1082D40000000000000000000100C480E4E8C3C8FE
:1082E400E4E8A1E8000000002200E4C8E4E840A8B3
:1082F40000000000000000004300E4E8E3E8208000
:108304000000000000000000000000000000000069
:108314000000000000000000000000000000000059
:108324000000000000000000000000000000000049
:1083340000000000000000004300E4E8E4E8E4E892
:10834400E4E8E4E8A1E82200E4C8E4E8E4E8E4E8D6
:10835400E4E8E4E881C8000000008330E4E8E4E8ED
:10836400E4E840A8000000002200E4C8E4E8E4E8EF
:10837400E4E8E4E8E4E881C84300E4E8E4E8E4E8A5
:10838400E4E8E4E8A1E800000000000000000000C8
:1083940000000000000000000000000000000000D9
:1083A40000000000000000000000000000000000C9
:1083B40000000000000000004300E4E8E4E8E4E812
:1083C400E4E8E4E8A1E82200E4C8E4E8E4E8E4E856
:1083D400E4E8E4E881C8000000002200E4C8E4E81E
:1083E400E3E80058000000002200E4C8E4E8E4E800
:1083F400E4E8E4E8E4E881C84300E4E8E4E8E4E825
:10840400E4E8E4E8A1E80000000000000000000047
:108414000000000000000000000000000000000058
:108424000000000000000000000000000000000048
:108434000000000000000000000000000000000038
:108444000000000000000000000000000000000028
:020000040003F7
:04D2A000000000008A
:08D2A40008010203040506075E
:00000001FF
